:1000000012C02CC02BC02AC029C028C027C026C0BF
:1000100025C024C023C022C021C020C01FC01EC0D4
:100020001DC01CC01BC011241FBECFE5D4E0DEBF25
:10003000CDBF10E0A0E6B0E0E6EAF0E002C0059037
:100040000D92A036B107D9F710E0A0E6B0E001C0EC
:100050001D92A236B107E1F70ED023C0D1CF10BC5C
:1000600089E189B988E18AB986E880BD08955F9BF6
:10007000FECF8CB1089510BC89E189B988E18AB9B5
:1000800086E880BD9FEF94BB15BA80E681BB97BB25
:1000900098BB5F9BFECF9CB1892F8695869585BBCB
:0600A000F7CFF894FFCF3A
:00000001FF
